{
  "contractName": "Healthchain",
  "abi": [
    {
      "constant": true,
      "inputs": [
        {
          "internalType": "uint256",
          "name": "",
          "type": "uint256"
        }
      ],
      "name": "documentHashes",
      "outputs": [
        {
          "internalType": "string",
          "name": "",
          "type": "string"
        }
      ],
      "payable": false,
      "stateMutability": "view",
      "type": "function"
    },
    {
      "constant": false,
      "inputs": [
        {
          "internalType": "string",
          "name": "documentHash",
          "type": "string"
        }
      ],
      "name": "addDocument",
      "outputs": [
        {
          "internalType": "uint256",
          "name": "",
          "type": "uint256"
        }
      ],
      "payable": false,
      "stateMutability": "nonpayable",
      "type": "function"
    },
    {
      "constant": true,
      "inputs": [
        {
          "internalType": "uint256",
          "name": "index",
          "type": "uint256"
        }
      ],
      "name": "getDocument",
      "outputs": [
        {
          "internalType": "string",
          "name": "",
          "type": "string"
        }
      ],
      "payable": false,
      "stateMutability": "view",
      "type": "function"
    }
  ],
  "bytecode": "0x608060405234801561001057600080fd5b50610570806100206000396000f3fe608060405234801561001057600080fd5b50600436106100415760003560e01c80633f9b250a146100465780638e383c6b146100ed578063f740e04514610194575b600080fd5b6100726004803603602081101561005c57600080fd5b8101908080359060200190929190505050610263565b6040518080602001828103825283818151815260200191508051906020019080838360005b838110156100b2578082015181840152602081019050610097565b50505050905090810190601f1680156100df5780820380516001836020036101000a031916815260200191505b509250505060405180910390f35b6101196004803603602081101561010357600080fd5b8101908080359060200190929190505050610393565b6040518080602001828103825283818151815260200191508051906020019080838360005b8381101561015957808201518184015260208101905061013e565b50505050905090810190601f1680156101865780820380516001836020036101000a031916815260200191505b509250505060405180910390f35b61024d600480360360208110156101aa57600080fd5b81019080803590602001906401000000008111156101c757600080fd5b8201836020820111156101d957600080fd5b803590602001918460018302840111640100000000831117156101fb57600080fd5b91908080601f016020809104026020016040519081016040528093929190818152602001838380828437600081840152601f19601f82011690508083019250505050505050919291929050505061044c565b6040518082815260200191505060405180910390f35b606060008210156102dc576040517f08c379a00000000000000000000000000000000000000000000000000000000081526004018080602001828103825260138152602001807f696e646578206d757374206265203e3d2030210000000000000000000000000081525060200191505060405180910390fd5b600082815481106102e957fe5b906000526020600020018054600181600116156101000203166002900480601f0160208091040260200160405190810160405280929190818152602001828054600181600116156101000203166002900480156103875780601f1061035c57610100808354040283529160200191610387565b820191906000526020600020905b81548152906001019060200180831161036a57829003601f168201915b50505050509050919050565b600081815481106103a057fe5b906000526020600020016000915090508054600181600116156101000203166002900480601f0160208091040260200160405190810160405280929190818152602001828054600181600116156101000203166002900480156104445780601f1061041957610100808354040283529160200191610444565b820191906000526020600020905b81548152906001019060200180831161042757829003601f168201915b505050505081565b60006001600083908060018154018082558091505090600182039060005260206000200160009091929091909150908051906020019061048d929190610496565b50039050919050565b828054600181600116156101000203166002900490600052602060002090601f016020900481019282601f106104d757805160ff1916838001178555610505565b82800160010185558215610505579182015b828111156105045782518255916020019190600101906104e9565b5b5090506105129190610516565b5090565b61053891905b8082111561053457600081600090555060010161051c565b5090565b9056fea265627a7a72315820640ac3952fbea0eb4a4b1960dfdf2ad175670b0df8669eaa5011fe3c66286bb864736f6c634300050c0032",
  "source": "pragma solidity ^0.5.0;\r\n\r\ncontract Healthchain {\r\n  string[] public documentHashes;\r\n\r\n  function addDocument(string memory documentHash) public returns (uint) {\r\n    return documentHashes.push(documentHash) - 1;\r\n  }\r\n\r\n  function getDocument(uint index) public view returns (string memory) {\r\n    require(index >= 0, 'index must be >= 0!');\r\n    return documentHashes[index];\r\n  }\r\n}\r\n",
  "sourcePath": "C:/Users/larry/work/healthchain/contracts/Healthchain.sol",
  "compiler": {
    "name": "solc",
    "version": "0.5.12+commit.7709ece9.Emscripten.clang"
  },
  "schemaVersion": "3.0.19",
  "updatedAt": "2019-11-19T21:43:59.247Z",
  "networkType": "ethereum",
  "devdoc": {
    "methods": {}
  },
  "userdoc": {
    "methods": {}
  }
}